{
  "contractName": "VoteFactory",
  "abi": [
    {
      "constant": true,
      "inputs": [
        {
          "name": "",
          "type": "uint256"
        }
      ],
      "name": "voteOwner",
      "outputs": [
        {
          "name": "",
          "type": "address"
        }
      ],
      "payable": false,
      "stateMutability": "view",
      "type": "function"
    },
    {
      "constant": true,
      "inputs": [
        {
          "name": "",
          "type": "uint256"
        }
      ],
      "name": "votes",
      "outputs": [
        {
          "name": "question",
          "type": "string"
        },
        {
          "name": "state",
          "type": "uint8"
        }
      ],
      "payable": false,
      "stateMutability": "view",
      "type": "function"
    },
    {
      "constant": false,
      "inputs": [],
      "name": "renounceOwnership",
      "outputs": [],
      "payable": false,
      "stateMutability": "nonpayable",
      "type": "function"
    },
    {
      "constant": true,
      "inputs": [],
      "name": "owner",
      "outputs": [
        {
          "name": "",
          "type": "address"
        }
      ],
      "payable": false,
      "stateMutability": "view",
      "type": "function"
    },
    {
      "constant": false,
      "inputs": [
        {
          "name": "_newOwner",
          "type": "address"
        }
      ],
      "name": "transferOwnership",
      "outputs": [],
      "payable": false,
      "stateMutability": "nonpayable",
      "type": "function"
    },
    {
      "inputs": [],
      "payable": false,
      "stateMutability": "nonpayable",
      "type": "constructor"
    },
    {
      "anonymous": false,
      "inputs": [
        {
          "indexed": true,
          "name": "voteId",
          "type": "uint256"
        },
        {
          "indexed": false,
          "name": "question",
          "type": "string"
        }
      ],
      "name": "CreateVote",
      "type": "event"
    },
    {
      "anonymous": false,
      "inputs": [
        {
          "indexed": true,
          "name": "voteId",
          "type": "uint256"
        }
      ],
      "name": "StartVote",
      "type": "event"
    },
    {
      "anonymous": false,
      "inputs": [
        {
          "indexed": true,
          "name": "voteId",
          "type": "uint256"
        }
      ],
      "name": "EndVote",
      "type": "event"
    },
    {
      "anonymous": false,
      "inputs": [
        {
          "indexed": true,
          "name": "previousOwner",
          "type": "address"
        }
      ],
      "name": "OwnershipRenounced",
      "type": "event"
    },
    {
      "anonymous": false,
      "inputs": [
        {
          "indexed": true,
          "name": "previousOwner",
          "type": "address"
        },
        {
          "indexed": true,
          "name": "newOwner",
          "type": "address"
        }
      ],
      "name": "OwnershipTransferred",
      "type": "event"
    },
    {
      "constant": false,
      "inputs": [],
      "name": "withdraw",
      "outputs": [],
      "payable": false,
      "stateMutability": "nonpayable",
      "type": "function"
    },
    {
      "constant": false,
      "inputs": [
        {
          "name": "_fee",
          "type": "uint256"
        }
      ],
      "name": "setCreateVoteFee",
      "outputs": [],
      "payable": false,
      "stateMutability": "nonpayable",
      "type": "function"
    },
    {
      "constant": false,
      "inputs": [
        {
          "name": "_question",
          "type": "string"
        }
      ],
      "name": "createVote",
      "outputs": [],
      "payable": true,
      "stateMutability": "payable",
      "type": "function"
    },
    {
      "constant": false,
      "inputs": [
        {
          "name": "_voteId",
          "type": "uint256"
        },
        {
          "name": "_answer",
          "type": "string"
        }
      ],
      "name": "addAnswer",
      "outputs": [],
      "payable": false,
      "stateMutability": "nonpayable",
      "type": "function"
    },
    {
      "constant": false,
      "inputs": [
        {
          "name": "_voteId",
          "type": "uint256"
        }
      ],
      "name": "startVote",
      "outputs": [],
      "payable": false,
      "stateMutability": "nonpayable",
      "type": "function"
    },
    {
      "constant": false,
      "inputs": [
        {
          "name": "_voteId",
          "type": "uint256"
        },
        {
          "name": "_answerOption",
          "type": "uint256"
        }
      ],
      "name": "castVote",
      "outputs": [],
      "payable": false,
      "stateMutability": "nonpayable",
      "type": "function"
    },
    {
      "constant": false,
      "inputs": [
        {
          "name": "_voteId",
          "type": "uint256"
        }
      ],
      "name": "endVote",
      "outputs": [],
      "payable": false,
      "stateMutability": "nonpayable",
      "type": "function"
    },
    {
      "constant": true,
      "inputs": [
        {
          "name": "_voteId",
          "type": "uint256"
        }
      ],
      "name": "results",
      "outputs": [
        {
          "name": "",
          "type": "uint256[]"
        }
      ],
      "payable": false,
      "stateMutability": "view",
      "type": "function"
    },
    {
      "constant": true,
      "inputs": [
        {
          "name": "_voteId",
          "type": "uint256"
        }
      ],
      "name": "isStarted",
      "outputs": [
        {
          "name": "",
          "type": "bool"
        }
      ],
      "payable": false,
      "stateMutability": "view",
      "type": "function"
    }
  ],
  "bytecode": "0x6080604052655af3107a400060045534801561001a57600080fd5b50336000806101000a81548173ffffffffffffffffffffffffffffffffffffffff021916908373ffffffffffffffffffffffffffffffffffffffff160217905550336000806101000a81548173ffffffffffffffffffffffffffffffffffffffff021916908373ffffffffffffffffffffffffffffffffffffffff1602179055506114d4806100aa6000396000f3006080604052600436106100d0576000357c0100000000000000000000000000000000000000000000000000000000900463ffffffff16806313292a02146100d55780631b0c27da146101315780632c0a3f89146101b3578063389bbc73146101ea5780633ccfd60b146102575780633f2205241461026e5780635df813301461029b578063715018a6146103565780637491995a1461036d578063865df0ad146103e05780638da5cb5b1461040d578063abd225e114610464578063ef82604c146104a9578063f2fde38b146104d6575b600080fd5b61012f600480360381019080803590602001908201803590602001908080601f0160208091040260200160405190810160405280939291908181526020018383808284378201915050505050509192919290505050610519565b005b34801561013d57600080fd5b5061015c60048036038101908080359060200190929190505050610717565b6040518080602001828103825283818151815260200191508051906020019060200280838360005b8381101561019f578082015181840152602081019050610184565b505050509050019250505060405180910390f35b3480156101bf57600080fd5b506101e86004803603810190808035906020019092919080359060200190929190505050610806565b005b3480156101f657600080fd5b50610215600480360381019080803590602001909291905050506109c5565b604051808273ffffffffffffffffffffffffffffffffffffffff1673ffffffffffffffffffffffffffffffffffffffff16815260200191505060405180910390f35b34801561026357600080fd5b5061026c6109f8565b005b34801561027a57600080fd5b5061029960048036038101908080359060200190929190505050610ad4565b005b3480156102a757600080fd5b506102c660048036038101908080359060200190929190505050610c3d565b60405180806020018360028111156102da57fe5b60ff168152602001828103825284818151815260200191508051906020019080838360005b8381101561031a5780820151818401526020810190506102ff565b50505050905090810190601f1680156103475780820380516001836020036101000a031916815260200191505b50935050505060405180910390f35b34801561036257600080fd5b5061036b610d15565b005b34801561037957600080fd5b506103de60048036038101908080359060200190929190803590602001908201803590602001908080601f0160208091040260200160405190810160405280939291908181526020018383808284378201915050505050509192919290505050610e17565b005b3480156103ec57600080fd5b5061040b60048036038101908080359060200190929190505050610f3d565b005b34801561041957600080fd5b50610422611074565b604051808273ffffffffffffffffffffffffffffffffffffffff1673ffffffffffffffffffffffffffffffffffffffff16815260200191505060405180910390f35b34801561047057600080fd5b5061048f60048036038101908080359060200190929190505050611099565b604051808215151515815260200191505060405180910390f35b3480156104b557600080fd5b506104d4600480360381019080803590602001909291905050506110e9565b005b3480156104e257600080fd5b50610517600480360381019080803573ffffffffffffffffffffffffffffffffffffffff16906020019092919050505061114e565b005b600454341015151561052a57600080fd5b6001806060604051908101604052808481526020016000600281111561054c57fe5b8152602001600060405190808252806020026020018201604052801561058657816020015b60608152602001906001900390816105715790505b508152509080600181540180825580915050906001820390600052602060002090600502016000909192909190915060008201518160000190805190602001906105d19291906112af565b5060208201518160010160006101000a81548160ff021916908360028111156105f657fe5b0217905550604082015181600201908051906020019061061792919061132f565b505050036003819055503360026000600354815260200190815260200160002060006101000a81548173ffffffffffffffffffffffffffffffffffffffff021916908373ffffffffffffffffffffffffffffffffffffffff1602179055506003547fef14945256f5c0916c4a21d0375f338b38047daed1b0be3889493528ce7a8c65826040518080602001828103825283818151815260200191508051906020019080838360005b838110156106da5780820151818401526020810190506106bf565b50505050905090810190601f1680156107075780820380516001836020036101000a031916815260200191505b509250505060405180910390a250565b606080600060018481548110151561072b57fe5b90600052602060002090600502016002018054905060405190808252806020026020018201604052801561076e5781602001602082028038833980820191505090505b509150600090505b60018481548110151561078557fe5b9060005260206000209060050201600201805490508110156107fc576001848154811015156107b057fe5b906000526020600020906005020160030160008281526020019081526020016000205482828151811015156107e157fe5b90602001906020020181815250508080600101915050610776565b8192505050919050565b816000151560018281548110151561081a57fe5b906000526020600020906005020160040160003373ffffffffffffffffffffffffffffffffffffffff1673ffffffffffffffffffffffffffffffffffffffff16815260200190815260200160002060009054906101000a900460ff16151514151561088457600080fd5b82600180600281111561089357fe5b6001838154811015156108a257fe5b906000526020600020906005020160010160009054906101000a900460ff1660028111156108cc57fe5b1415156108d857600080fd5b836001868154811015156108e857fe5b9060005260206000209060050201600201805490501015151561090a57600080fd5b6001808681548110151561091a57fe5b906000526020600020906005020160040160003373ffffffffffffffffffffffffffffffffffffffff1673ffffffffffffffffffffffffffffffffffffffff16815260200190815260200160002060006101000a81548160ff0219169083151502179055506001808681548110151561098f57fe5b90600052602060002090600502016003016000868152602001908152602001600020600082825401925050819055505050505050565b60026020528060005260406000206000915054906101000a900473ffffffffffffffffffffffffffffffffffffffff1681565b6000809054906101000a900473ffffffffffffffffffffffffffffffffffffffff1673ffffffffffffffffffffffffffffffffffffffff163373ffffffffffffffffffffffffffffffffffffffff16141515610a5357600080fd5b6000809054906101000a900473ffffffffffffffffffffffffffffffffffffffff1673ffffffffffffffffffffffffffffffffffffffff166108fc3073ffffffffffffffffffffffffffffffffffffffff16319081150290604051600060405180830381858888f19350505050158015610ad1573d6000803e3d6000fd5b50565b803373ffffffffffffffffffffffffffffffffffffffff166002600083815260200190815260200160002060009054906101000a900473ffffffffffffffffffffffffffffffffffffffff1673ffffffffffffffffffffffffffffffffffffffff16141515610b4257600080fd5b816000806002811115610b5157fe5b600183815481101515610b6057fe5b906000526020600020906005020160010160009054906101000a900460ff166002811115610b8a57fe5b141515610b9657600080fd5b6002600185815481101515610ba757fe5b90600052602060002090600502016002018054905010151515610bc957600080fd5b60018085815481101515610bd957fe5b906000526020600020906005020160010160006101000a81548160ff02191690836002811115610c0557fe5b0217905550837f33c2d6285ba1442f7dd954820743aacec7468bc52e1671024b948f48f132264060405160405180910390a250505050565b600181815481101515610c4c57fe5b9060005260206000209060050201600091509050806000018054600181600116156101000203166002900480601f016020809104026020016040519081016040528092919081815260200182805460018160011615610100020316600290048015610cf85780601f10610ccd57610100808354040283529160200191610cf8565b820191906000526020600020905b815481529060010190602001808311610cdb57829003601f168201915b5050505050908060010160009054906101000a900460ff16905082565b6000809054906101000a900473ffffffffffffffffffffffffffffffffffffffff1673ffffffffffffffffffffffffffffffffffffffff163373ffffffffffffffffffffffffffffffffffffffff16141515610d7057600080fd5b6000809054906101000a900473ffffffffffffffffffffffffffffffffffffffff1673ffffffffffffffffffffffffffffffffffffffff167ff8df31144d9c2f0f6b59d69b8b98abd5459d07f2742c4df920b25aae33c6482060405160405180910390a260008060006101000a81548173ffffffffffffffffffffffffffffffffffffffff021916908373ffffffffffffffffffffffffffffffffffffffff160217905550565b813373ffffffffffffffffffffffffffffffffffffffff166002600083815260200190815260200160002060009054906101000a900473ffffffffffffffffffffffffffffffffffffffff1673ffffffffffffffffffffffffffffffffffffffff16141515610e8557600080fd5b826000806002811115610e9457fe5b600183815481101515610ea357fe5b906000526020600020906005020160010160009054906101000a900460ff166002811115610ecd57fe5b141515610ed957600080fd5b600185815481101515610ee857fe5b9060005260206000209060050201600201849080600181540180825580915050906001820390600052602060002001600090919290919091509080519060200190610f3492919061138f565b50505050505050565b803373ffffffffffffffffffffffffffffffffffffffff166002600083815260200190815260200160002060009054906101000a900473ffffffffffffffffffffffffffffffffffffffff1673ffffffffffffffffffffffffffffffffffffffff16141515610fab57600080fd5b816001806002811115610fba57fe5b600183815481101515610fc957fe5b906000526020600020906005020160010160009054906101000a900460ff166002811115610ff357fe5b141515610fff57600080fd5b600260018581548110151561101057fe5b906000526020600020906005020160010160006101000a81548160ff0219169083600281111561103c57fe5b0217905550837ffce20a510f6f83f7014a422dfa9541af4170f706faeed678bf815b2bad2c3b9d60405160405180910390a250505050565b6000809054906101000a900473ffffffffffffffffffffffffffffffffffffffff1681565b6000600160028111156110a857fe5b6001838154811015156110b757fe5b906000526020600020906005020160010160009054906101000a900460ff1660028111156110e157fe5b149050919050565b6000809054906101000a900473ffffffffffffffffffffffffffffffffffffffff1673ffffffffffffffffffffffffffffffffffffffff163373ffffffffffffffffffffffffffffffffffffffff1614151561114457600080fd5b8060048190555050565b6000809054906101000a900473ffffffffffffffffffffffffffffffffffffffff1673ffffffffffffffffffffffffffffffffffffffff163373ffffffffffffffffffffffffffffffffffffffff161415156111a957600080fd5b6111b2816111b5565b50565b600073ffffffffffffffffffffffffffffffffffffffff168173ffffffffffffffffffffffffffffffffffffffff16141515156111f157600080fd5b8073ffffffffffffffffffffffffffffffffffffffff166000809054906101000a900473ffffffffffffffffffffffffffffffffffffffff1673ffffffffffffffffffffffffffffffffffffffff167f8be0079c531659141344cd1fd0a4f28419497f9722a3daafe3b4186f6b6457e060405160405180910390a3806000806101000a81548173ffffffffffffffffffffffffffffffffffffffff021916908373ffffffffffffffffffffffffffffffffffffffff16021790555050565b828054600181600116156101000203166002900490600052602060002090601f016020900481019282601f106112f057805160ff191683800117855561131e565b8280016001018555821561131e579182015b8281111561131d578251825591602001919060010190611302565b5b50905061132b919061140f565b5090565b82805482825590600052602060002090810192821561137e579160200282015b8281111561137d57825182908051906020019061136d9291906112af565b509160200191906001019061134f565b5b50905061138b9190611434565b5090565b828054600181600116156101000203166002900490600052602060002090601f016020900481019282601f106113d057805160ff19168380011785556113fe565b828001600101855582156113fe579182015b828111156113fd5782518255916020019190600101906113e2565b5b50905061140b919061140f565b5090565b61143191905b8082111561142d576000816000905550600101611415565b5090565b90565b61145d91905b8082111561145957600081816114509190611460565b5060010161143a565b5090565b90565b50805460018160011615610100020316600290046000825580601f1061148657506114a5565b601f0160209004906000526020600020908101906114a4919061140f565b5b505600a165627a7a723058202014672e0b964636a6159b9595d0f59f5a392ec3517ab1827e2be1dc883093c00029",
  "source": "pragma solidity ^ 0.4 .24;\n\nimport \"./Ownable.sol\";\n\ncontract VoteFactory is  Ownable   {\n\n    modifier voterNotVoted(uint256 _voteId) {\n        require(votes[_voteId].voterIsVoted[msg.sender] == false);\n        _;\n    }\n\n    modifier ownerOfVote(uint256 _voteId) {\n        require(voteOwner[_voteId] == msg.sender);\n        _;\n    }\n\n    modifier voteStateEqually(uint256 _voteId, State _state) {\n        require(votes[_voteId].state == _state);\n        _;\n    }\n\n    event CreateVote(uint256 indexed voteId, string question);\n    event StartVote(uint256 indexed voteId);\n    event EndVote(uint256 indexed voteId);\n\n    enum State {\n        Initial,\n        Started,\n        Stopped\n    }\n\n    struct Vote {\n        string question;\n        State state;\n        string[] answers;\n\n        mapping (uint256 => uint256) voteCount;\n        mapping (address => bool) voterIsVoted;\n//        mapping (address => uint) votedFor;\n    }\n\n    Vote[] public votes;\n    mapping(uint256 => address) public voteOwner;\n    uint256 voteId;\n\n    uint256 private createVoteFee = 0.0001 ether;\n\n    constructor() public {\n        owner = msg.sender;\n    }\n\n    function withdraw() public onlyOwner() {\n        owner.transfer(address(this).balance);\n    }\n\n    function setCreateVoteFee(uint256 _fee) public onlyOwner() {\n        createVoteFee = _fee; \n    }\n\n    function createVote(string _question) public payable {\n        require(msg.value >= createVoteFee);\n        voteId = votes.push(Vote(_question, State.Initial, new string[](0))) - 1;\n        voteOwner[voteId] = msg.sender;\n        emit CreateVote(voteId, _question);\n    }\n\n    function addAnswer(uint256 _voteId, string _answer) public ownerOfVote(_voteId) voteStateEqually(_voteId, State.Initial) {\n        votes[_voteId].answers.push(_answer);\n    }\n\n    function startVote(uint256 _voteId) public ownerOfVote(_voteId) voteStateEqually(_voteId, State.Initial) {\n        require( votes[_voteId].answers.length >= 2);\n        votes[_voteId].state = State.Started;\n        emit StartVote(_voteId);\n    }\n\n   function castVote(\n        uint256 _voteId,\n        uint256 _answerOption\n    )\n        public \n        voterNotVoted(_voteId) voteStateEqually(_voteId, State.Started) {\n        \n        require(votes[_voteId].answers.length >= _answerOption);\n        votes[_voteId].voterIsVoted[msg.sender] = true;\n//        votes[_voteId].votedFor[msg.sender] = _answerOption;\n        votes[_voteId].voteCount[_answerOption] += 1; \n    }\n    \n    function endVote(uint256 _voteId) public ownerOfVote(_voteId) voteStateEqually(_voteId, State.Started) {\n       votes[_voteId].state = State.Stopped;\n       emit EndVote(_voteId);\n    }\n\n    function results(uint256 _voteId) public view returns(uint256[]) {\n        uint256[] memory result = new uint256[](votes[_voteId].answers.length);\n        for (uint256 i = 0; i < votes[_voteId].answers.length; i ++)\n            result[i] = votes[_voteId].voteCount[i];\n        return result;\n    }\n\n    function isStarted(uint256 _voteId) public view returns(bool) {\n        return votes[_voteId].state == State.Started;\n    }\n\n//    function casting(uint _voteId) returns(uint _answerOption) {\n//            return votes[_voteId].votedFor[msg.sender];\n//    }\n//\n//    function getMyVoteHistory() returns(uint[] _answerOnVotes, uint[] _answerOptions){\n//        uint[] answerOnVotes;\n//        uint[] answerOptions; \n//        for (uint i = 0; i < voteId; i++) \n//            if (votes[i].voterIsVoted[msg.sender] == true) {  \n//                answerOnVotes.push(i);\n//        }\n//        for (uint j = 0; j < answerOnVotes.length; j++) {\n//            answerOptions.push(casting(answerOnVotes[i]));\n//         } \n//        return (answerOnVotes, answerOptions);\n//\n//    }\n    \n}",
  "sourcePath": "/home/msi/vote/contracts/VoteFactory.sol",
  "compiler": {
    "name": "solc",
    "version": "0.4.24+commit.e67f0147.Emscripten.clang"
  },
  "schemaVersion": "2.0.1",
  "updatedAt": "2018-07-17T07:10:49.777Z"
}