{
  "contractName": "VoteFactory",
  "abi": [
    {
      "constant": true,
      "inputs": [
        {
          "name": "",
          "type": "uint256"
        }
      ],
      "name": "voteOwner",
      "outputs": [
        {
          "name": "",
          "type": "address"
        }
      ],
      "payable": false,
      "stateMutability": "view",
      "type": "function"
    },
    {
      "constant": true,
      "inputs": [
        {
          "name": "",
          "type": "uint256"
        }
      ],
      "name": "votes",
      "outputs": [
        {
          "name": "question",
          "type": "string"
        },
        {
          "name": "state",
          "type": "uint8"
        }
      ],
      "payable": false,
      "stateMutability": "view",
      "type": "function"
    },
    {
      "constant": false,
      "inputs": [],
      "name": "renounceOwnership",
      "outputs": [],
      "payable": false,
      "stateMutability": "nonpayable",
      "type": "function"
    },
    {
      "constant": true,
      "inputs": [],
      "name": "owner",
      "outputs": [
        {
          "name": "",
          "type": "address"
        }
      ],
      "payable": false,
      "stateMutability": "view",
      "type": "function"
    },
    {
      "constant": false,
      "inputs": [
        {
          "name": "_newOwner",
          "type": "address"
        }
      ],
      "name": "transferOwnership",
      "outputs": [],
      "payable": false,
      "stateMutability": "nonpayable",
      "type": "function"
    },
    {
      "inputs": [],
      "payable": false,
      "stateMutability": "nonpayable",
      "type": "constructor"
    },
    {
      "anonymous": false,
      "inputs": [
        {
          "indexed": false,
          "name": "voteId",
          "type": "uint256"
        },
        {
          "indexed": false,
          "name": "question",
          "type": "string"
        }
      ],
      "name": "CreateVote",
      "type": "event"
    },
    {
      "anonymous": false,
      "inputs": [
        {
          "indexed": false,
          "name": "voteId",
          "type": "uint256"
        }
      ],
      "name": "StartVote",
      "type": "event"
    },
    {
      "anonymous": false,
      "inputs": [
        {
          "indexed": false,
          "name": "voteId",
          "type": "uint256"
        }
      ],
      "name": "EndVote",
      "type": "event"
    },
    {
      "anonymous": false,
      "inputs": [
        {
          "indexed": true,
          "name": "previousOwner",
          "type": "address"
        }
      ],
      "name": "OwnershipRenounced",
      "type": "event"
    },
    {
      "anonymous": false,
      "inputs": [
        {
          "indexed": true,
          "name": "previousOwner",
          "type": "address"
        },
        {
          "indexed": true,
          "name": "newOwner",
          "type": "address"
        }
      ],
      "name": "OwnershipTransferred",
      "type": "event"
    },
    {
      "constant": false,
      "inputs": [
        {
          "name": "_question",
          "type": "string"
        }
      ],
      "name": "createVote",
      "outputs": [],
      "payable": false,
      "stateMutability": "nonpayable",
      "type": "function"
    },
    {
      "constant": false,
      "inputs": [
        {
          "name": "_voteId",
          "type": "uint256"
        },
        {
          "name": "_answer",
          "type": "string"
        }
      ],
      "name": "addAnswer",
      "outputs": [],
      "payable": false,
      "stateMutability": "nonpayable",
      "type": "function"
    },
    {
      "constant": false,
      "inputs": [
        {
          "name": "_voteId",
          "type": "uint256"
        }
      ],
      "name": "startVote",
      "outputs": [],
      "payable": false,
      "stateMutability": "nonpayable",
      "type": "function"
    },
    {
      "constant": false,
      "inputs": [
        {
          "name": "_voteId",
          "type": "uint256"
        },
        {
          "name": "_answerOption",
          "type": "uint256"
        }
      ],
      "name": "voteAnswer",
      "outputs": [],
      "payable": false,
      "stateMutability": "nonpayable",
      "type": "function"
    },
    {
      "constant": false,
      "inputs": [
        {
          "name": "_voteId",
          "type": "uint256"
        }
      ],
      "name": "endVote",
      "outputs": [],
      "payable": false,
      "stateMutability": "nonpayable",
      "type": "function"
    },
    {
      "constant": true,
      "inputs": [
        {
          "name": "_voteId",
          "type": "uint256"
        }
      ],
      "name": "voteCount",
      "outputs": [
        {
          "name": "",
          "type": "uint256[]"
        }
      ],
      "payable": false,
      "stateMutability": "view",
      "type": "function"
    },
    {
      "constant": true,
      "inputs": [
        {
          "name": "_voteId",
          "type": "uint256"
        }
      ],
      "name": "isStarted",
      "outputs": [
        {
          "name": "",
          "type": "bool"
        }
      ],
      "payable": false,
      "stateMutability": "view",
      "type": "function"
    }
  ],
  "bytecode": "0x608060405234801561001057600080fd5b50336000806101000a81548173ffffffffffffffffffffffffffffffffffffffff021916908373ffffffffffffffffffffffffffffffffffffffff160217905550336000806101000a81548173ffffffffffffffffffffffffffffffffffffffff021916908373ffffffffffffffffffffffffffffffffffffffff160217905550611319806100a06000396000f3006080604052600436106100ba576000357c0100000000000000000000000000000000000000000000000000000000900463ffffffff16806313292a02146100bf578063389bbc73146101285780633f220524146101955780634fc8a20d146101c25780635df81330146102445780636b7ea125146102ff578063715018a6146103365780637491995a1461034d578063865df0ad146103c05780638da5cb5b146103ed578063abd225e114610444578063f2fde38b14610489575b600080fd5b3480156100cb57600080fd5b50610126600480360381019080803590602001908201803590602001908080601f01602080910402602001604051908101604052809392919081815260200183838082843782019150505050505091929192905050506104cc565b005b34801561013457600080fd5b50610153600480360381019080803590602001909291905050506106bb565b604051808273ffffffffffffffffffffffffffffffffffffffff1673ffffffffffffffffffffffffffffffffffffffff16815260200191505060405180910390f35b3480156101a157600080fd5b506101c0600480360381019080803590602001909291905050506106ee565b005b3480156101ce57600080fd5b506101ed60048036038101908080359060200190929190505050610861565b6040518080602001828103825283818151815260200191508051906020019060200280838360005b83811015610230578082015181840152602081019050610215565b505050509050019250505060405180910390f35b34801561025057600080fd5b5061026f60048036038101908080359060200190929190505050610950565b604051808060200183600281111561028357fe5b60ff168152602001828103825284818151815260200191508051906020019080838360005b838110156102c35780820151818401526020810190506102a8565b50505050905090810190601f1680156102f05780820380516001836020036101000a031916815260200191505b50935050505060405180910390f35b34801561030b57600080fd5b506103346004803603810190808035906020019092919080359060200190929190505050610a28565b005b34801561034257600080fd5b5061034b610bb5565b005b34801561035957600080fd5b506103be60048036038101908080359060200190929190803590602001908201803590602001908080601f0160208091040260200160405190810160405280939291908181526020018383808284378201915050505050509192919290505050610cb7565b005b3480156103cc57600080fd5b506103eb60048036038101908080359060200190929190505050610ddd565b005b3480156103f957600080fd5b50610402610f1e565b604051808273ffffffffffffffffffffffffffffffffffffffff1673ffffffffffffffffffffffffffffffffffffffff16815260200191505060405180910390f35b34801561045057600080fd5b5061046f60048036038101908080359060200190929190505050610f43565b604051808215151515815260200191505060405180910390f35b34801561049557600080fd5b506104ca600480360381019080803573ffffffffffffffffffffffffffffffffffffffff169060200190929190505050610f93565b005b6000600180606060405190810160405280858152602001600060028111156104f057fe5b8152602001600060405190808252806020026020018201604052801561052a57816020015b60608152602001906001900390816105155790505b508152509080600181540180825580915050906001820390600052602060002090600502016000909192909190915060008201518160000190805190602001906105759291906110f4565b5060208201518160010160006101000a81548160ff0219169083600281111561059a57fe5b021790555060408201518160020190805190602001906105bb929190611174565b505050039050336002600083815260200190815260200160002060006101000a81548173ffffffffffffffffffffffffffffffffffffffff021916908373ffffffffffffffffffffffffffffffffffffffff1602179055507fef14945256f5c0916c4a21d0375f338b38047daed1b0be3889493528ce7a8c6581836040518083815260200180602001828103825283818151815260200191508051906020019080838360005b8381101561067c578082015181840152602081019050610661565b50505050905090810190601f1680156106a95780820380516001836020036101000a031916815260200191505b50935050505060405180910390a15050565b60026020528060005260406000206000915054906101000a900473ffffffffffffffffffffffffffffffffffffffff1681565b803373ffffffffffffffffffffffffffffffffffffffff166002600083815260200190815260200160002060009054906101000a900473ffffffffffffffffffffffffffffffffffffffff1673ffffffffffffffffffffffffffffffffffffffff1614151561075c57600080fd5b81600080600281111561076b57fe5b60018381548110151561077a57fe5b906000526020600020906005020160010160009054906101000a900460ff1660028111156107a457fe5b1415156107b057600080fd5b60026001858154811015156107c157fe5b906000526020600020906005020160020180549050101515156107e357600080fd5b600180858154811015156107f357fe5b906000526020600020906005020160010160006101000a81548160ff0219169083600281111561081f57fe5b02179055507f33c2d6285ba1442f7dd954820743aacec7468bc52e1671024b948f48f1322640846040518082815260200191505060405180910390a150505050565b606080600060018481548110151561087557fe5b9060005260206000209060050201600201805490506040519080825280602002602001820160405280156108b85781602001602082028038833980820191505090505b509150600090505b6001848154811015156108cf57fe5b906000526020600020906005020160020180549050811015610946576001848154811015156108fa57fe5b9060005260206000209060050201600301600082815260200190815260200160002054828281518110151561092b57fe5b906020019060200201818152505080806001019150506108c0565b8192505050919050565b60018181548110151561095f57fe5b9060005260206000209060050201600091509050806000018054600181600116156101000203166002900480601f016020809104026020016040519081016040528092919081815260200182805460018160011615610100020316600290048015610a0b5780601f106109e057610100808354040283529160200191610a0b565b820191906000526020600020905b8154815290600101906020018083116109ee57829003601f168201915b5050505050908060010160009054906101000a900460ff16905082565b8160001515600182815481101515610a3c57fe5b906000526020600020906005020160040160003373ffffffffffffffffffffffffffffffffffffffff1673ffffffffffffffffffffffffffffffffffffffff16815260200190815260200160002060009054906101000a900460ff161515141515610aa657600080fd5b826001806002811115610ab557fe5b600183815481101515610ac457fe5b906000526020600020906005020160010160009054906101000a900460ff166002811115610aee57fe5b141515610afa57600080fd5b60018086815481101515610b0a57fe5b906000526020600020906005020160040160003373ffffffffffffffffffffffffffffffffffffffff1673ffffffffffffffffffffffffffffffffffffffff16815260200190815260200160002060006101000a81548160ff02191690831515021790555060018086815481101515610b7f57fe5b90600052602060002090600502016003016000868152602001908152602001600020600082825401925050819055505050505050565b6000809054906101000a900473ffffffffffffffffffffffffffffffffffffffff1673ffffffffffffffffffffffffffffffffffffffff163373ffffffffffffffffffffffffffffffffffffffff16141515610c1057600080fd5b6000809054906101000a900473ffffffffffffffffffffffffffffffffffffffff1673ffffffffffffffffffffffffffffffffffffffff167ff8df31144d9c2f0f6b59d69b8b98abd5459d07f2742c4df920b25aae33c6482060405160405180910390a260008060006101000a81548173ffffffffffffffffffffffffffffffffffffffff021916908373ffffffffffffffffffffffffffffffffffffffff160217905550565b813373ffffffffffffffffffffffffffffffffffffffff166002600083815260200190815260200160002060009054906101000a900473ffffffffffffffffffffffffffffffffffffffff1673ffffffffffffffffffffffffffffffffffffffff16141515610d2557600080fd5b826000806002811115610d3457fe5b600183815481101515610d4357fe5b906000526020600020906005020160010160009054906101000a900460ff166002811115610d6d57fe5b141515610d7957600080fd5b600185815481101515610d8857fe5b9060005260206000209060050201600201849080600181540180825580915050906001820390600052602060002001600090919290919091509080519060200190610dd49291906111d4565b50505050505050565b803373ffffffffffffffffffffffffffffffffffffffff166002600083815260200190815260200160002060009054906101000a900473ffffffffffffffffffffffffffffffffffffffff1673ffffffffffffffffffffffffffffffffffffffff16141515610e4b57600080fd5b816001806002811115610e5a57fe5b600183815481101515610e6957fe5b906000526020600020906005020160010160009054906101000a900460ff166002811115610e9357fe5b141515610e9f57600080fd5b6002600185815481101515610eb057fe5b906000526020600020906005020160010160006101000a81548160ff02191690836002811115610edc57fe5b02179055507ffce20a510f6f83f7014a422dfa9541af4170f706faeed678bf815b2bad2c3b9d846040518082815260200191505060405180910390a150505050565b6000809054906101000a900473ffffffffffffffffffffffffffffffffffffffff1681565b600060016002811115610f5257fe5b600183815481101515610f6157fe5b906000526020600020906005020160010160009054906101000a900460ff166002811115610f8b57fe5b149050919050565b6000809054906101000a900473ffffffffffffffffffffffffffffffffffffffff1673ffffffffffffffffffffffffffffffffffffffff163373ffffffffffffffffffffffffffffffffffffffff16141515610fee57600080fd5b610ff781610ffa565b50565b600073ffffffffffffffffffffffffffffffffffffffff168173ffffffffffffffffffffffffffffffffffffffff161415151561103657600080fd5b8073ffffffffffffffffffffffffffffffffffffffff166000809054906101000a900473ffffffffffffffffffffffffffffffffffffffff1673ffffffffffffffffffffffffffffffffffffffff167f8be0079c531659141344cd1fd0a4f28419497f9722a3daafe3b4186f6b6457e060405160405180910390a3806000806101000a81548173ffffffffffffffffffffffffffffffffffffffff021916908373ffffffffffffffffffffffffffffffffffffffff16021790555050565b828054600181600116156101000203166002900490600052602060002090601f016020900481019282601f1061113557805160ff1916838001178555611163565b82800160010185558215611163579182015b82811115611162578251825591602001919060010190611147565b5b5090506111709190611254565b5090565b8280548282559060005260206000209081019282156111c3579160200282015b828111156111c25782518290805190602001906111b29291906110f4565b5091602001919060010190611194565b5b5090506111d09190611279565b5090565b828054600181600116156101000203166002900490600052602060002090601f016020900481019282601f1061121557805160ff1916838001178555611243565b82800160010185558215611243579182015b82811115611242578251825591602001919060010190611227565b5b5090506112509190611254565b5090565b61127691905b8082111561127257600081600090555060010161125a565b5090565b90565b6112a291905b8082111561129e576000818161129591906112a5565b5060010161127f565b5090565b90565b50805460018160011615610100020316600290046000825580601f106112cb57506112ea565b601f0160209004906000526020600020908101906112e99190611254565b5b505600a165627a7a723058208db1a9948a97f03a31d4bc8d537c77c4762d10715bfc704f7a9b94ec284ce5880029",
  "source": "pragma solidity ^ 0.4 .24;\n\nimport \"./Ownable.sol\";\n\ncontract VoteFactory is  Ownable   {\n\n    modifier voterNotVoted(uint _voteId) {\n        require(votes[_voteId].voterIsVoted[msg.sender] == false);\n        _;\n    }\n\n    modifier ownerOfVote(uint _voteId) {\n        require(voteOwner[_voteId] == msg.sender);\n        _;\n    }\n\n    modifier voteStateEqually(uint _voteId, State _state) {\n        require(votes[_voteId].state == _state);\n        _;\n    }\n\n    event CreateVote(uint voteId, string question);\n    event StartVote(uint voteId);\n    event EndVote(uint voteId);\n\n    enum State {\n        Initial,\n        Started,\n        Stopped\n    }\n\n    struct Vote {\n        string question;\n        State state;\n        string[] answers;\n\n        mapping (uint => uint) voteCount;\n        mapping (address => bool) voterIsVoted;\n    }\n\n    Vote[] public votes;\n    mapping(uint256 => address) public voteOwner;\n\n    constructor() public {\n        owner = msg.sender;\n    }\n\n    function createVote(string _question) public {\n        uint voteId = votes.push(Vote(_question, State.Initial, new string[](0))) - 1;\n        voteOwner[voteId] = msg.sender;\n        emit CreateVote(voteId, _question);\n    }\n\n    function addAnswer(uint256 _voteId, string _answer) public  ownerOfVote(_voteId) voteStateEqually(_voteId, State.Initial) {\n        votes[_voteId].answers.push(_answer);\n    }\n\n    function startVote(uint _voteId) public ownerOfVote(_voteId) voteStateEqually(_voteId, State.Initial) {\n        require( votes[_voteId].answers.length >= 2);\n        votes[_voteId].state = State.Started;\n        emit StartVote(_voteId);\n    }\n\n   function voteAnswer(uint _voteId, uint _answerOption) public voterNotVoted(_voteId) voteStateEqually(_voteId, State.Started)  {\n        votes[_voteId].voterIsVoted[msg.sender] = true;\n        votes[_voteId].voteCount[_answerOption] += 1; \n    }\n    \n    function endVote(uint _voteId) public ownerOfVote(_voteId) voteStateEqually(_voteId, State.Started){\n       votes[_voteId].state = State.Stopped;\n       emit EndVote(_voteId);\n    }\n\n    function voteCount(uint _voteId) public view returns(uint[]){\n        uint[] memory result = new uint[](votes[_voteId].answers.length);\n        for (uint i = 0; i < votes[_voteId].answers.length; i ++)\n            result[i] = votes[_voteId].voteCount[i];\n    return result;\n    }\n\n    function isStarted(uint _voteId) public view returns(bool) {\n        return votes[_voteId].state == State.Started;\n    }\n \n}",
  "sourcePath": "/home/msi/vote/contracts/VoteFactory.sol",
  "compiler": {
    "name": "solc",
    "version": "0.4.24+commit.e67f0147.Emscripten.clang"
  },
  "schemaVersion": "2.0.1",
  "updatedAt": "2018-07-12T10:51:14.863Z"
}