{
  "contractName": "VoteFactory",
  "abi": [
    {
      "constant": true,
      "inputs": [
        {
          "name": "",
          "type": "uint256"
        }
      ],
      "name": "voteOwner",
      "outputs": [
        {
          "name": "",
          "type": "address"
        }
      ],
      "payable": false,
      "stateMutability": "view",
      "type": "function"
    },
    {
      "constant": true,
      "inputs": [
        {
          "name": "",
          "type": "uint256"
        }
      ],
      "name": "votes",
      "outputs": [
        {
          "name": "question",
          "type": "string"
        },
        {
          "name": "state",
          "type": "uint8"
        }
      ],
      "payable": false,
      "stateMutability": "view",
      "type": "function"
    },
    {
      "constant": false,
      "inputs": [],
      "name": "renounceOwnership",
      "outputs": [],
      "payable": false,
      "stateMutability": "nonpayable",
      "type": "function"
    },
    {
      "constant": true,
      "inputs": [],
      "name": "owner",
      "outputs": [
        {
          "name": "",
          "type": "address"
        }
      ],
      "payable": false,
      "stateMutability": "view",
      "type": "function"
    },
    {
      "constant": false,
      "inputs": [
        {
          "name": "_newOwner",
          "type": "address"
        }
      ],
      "name": "transferOwnership",
      "outputs": [],
      "payable": false,
      "stateMutability": "nonpayable",
      "type": "function"
    },
    {
      "inputs": [],
      "payable": false,
      "stateMutability": "nonpayable",
      "type": "constructor"
    },
    {
      "anonymous": false,
      "inputs": [
        {
          "indexed": false,
          "name": "voteId",
          "type": "uint256"
        },
        {
          "indexed": false,
          "name": "question",
          "type": "string"
        }
      ],
      "name": "CreateVote",
      "type": "event"
    },
    {
      "anonymous": false,
      "inputs": [
        {
          "indexed": false,
          "name": "voteId",
          "type": "uint256"
        }
      ],
      "name": "StartVote",
      "type": "event"
    },
    {
      "anonymous": false,
      "inputs": [
        {
          "indexed": false,
          "name": "voteId",
          "type": "uint256"
        }
      ],
      "name": "EndVote",
      "type": "event"
    },
    {
      "anonymous": false,
      "inputs": [
        {
          "indexed": true,
          "name": "previousOwner",
          "type": "address"
        }
      ],
      "name": "OwnershipRenounced",
      "type": "event"
    },
    {
      "anonymous": false,
      "inputs": [
        {
          "indexed": true,
          "name": "previousOwner",
          "type": "address"
        },
        {
          "indexed": true,
          "name": "newOwner",
          "type": "address"
        }
      ],
      "name": "OwnershipTransferred",
      "type": "event"
    },
    {
      "constant": false,
      "inputs": [],
      "name": "withdraw",
      "outputs": [],
      "payable": false,
      "stateMutability": "nonpayable",
      "type": "function"
    },
    {
      "constant": false,
      "inputs": [
        {
          "name": "_fee",
          "type": "uint256"
        }
      ],
      "name": "setCreateVoteFee",
      "outputs": [],
      "payable": false,
      "stateMutability": "nonpayable",
      "type": "function"
    },
    {
      "constant": false,
      "inputs": [
        {
          "name": "_question",
          "type": "string"
        }
      ],
      "name": "createVote",
      "outputs": [],
      "payable": true,
      "stateMutability": "payable",
      "type": "function"
    },
    {
      "constant": false,
      "inputs": [
        {
          "name": "_voteId",
          "type": "uint256"
        },
        {
          "name": "_answer",
          "type": "string"
        }
      ],
      "name": "addAnswer",
      "outputs": [],
      "payable": false,
      "stateMutability": "nonpayable",
      "type": "function"
    },
    {
      "constant": false,
      "inputs": [
        {
          "name": "_voteId",
          "type": "uint256"
        }
      ],
      "name": "startVote",
      "outputs": [],
      "payable": false,
      "stateMutability": "nonpayable",
      "type": "function"
    },
    {
      "constant": false,
      "inputs": [
        {
          "name": "_voteId",
          "type": "uint256"
        },
        {
          "name": "_answerOption",
          "type": "uint256"
        }
      ],
      "name": "voteAnswer",
      "outputs": [],
      "payable": false,
      "stateMutability": "nonpayable",
      "type": "function"
    },
    {
      "constant": false,
      "inputs": [
        {
          "name": "_voteId",
          "type": "uint256"
        }
      ],
      "name": "endVote",
      "outputs": [],
      "payable": false,
      "stateMutability": "nonpayable",
      "type": "function"
    },
    {
      "constant": true,
      "inputs": [
        {
          "name": "_voteId",
          "type": "uint256"
        }
      ],
      "name": "voteCount",
      "outputs": [
        {
          "name": "",
          "type": "uint256[]"
        }
      ],
      "payable": false,
      "stateMutability": "view",
      "type": "function"
    },
    {
      "constant": true,
      "inputs": [
        {
          "name": "_voteId",
          "type": "uint256"
        }
      ],
      "name": "isStarted",
      "outputs": [
        {
          "name": "",
          "type": "bool"
        }
      ],
      "payable": false,
      "stateMutability": "view",
      "type": "function"
    }
  ],
  "bytecode": "0x6080604052655af3107a400060045534801561001a57600080fd5b50336000806101000a81548173ffffffffffffffffffffffffffffffffffffffff021916908373ffffffffffffffffffffffffffffffffffffffff160217905550336000806101000a81548173ffffffffffffffffffffffffffffffffffffffff021916908373ffffffffffffffffffffffffffffffffffffffff1602179055506114ef806100aa6000396000f3006080604052600436106100d0576000357c0100000000000000000000000000000000000000000000000000000000900463ffffffff16806313292a02146100d5578063389bbc73146101315780633ccfd60b1461019e5780633f220524146101b55780634fc8a20d146101e25780635df81330146102645780636b7ea1251461031f578063715018a6146103565780637491995a1461036d578063865df0ad146103e05780638da5cb5b1461040d578063abd225e114610464578063ef82604c146104a9578063f2fde38b146104d6575b600080fd5b61012f600480360381019080803590602001908201803590602001908080601f0160208091040260200160405190810160405280939291908181526020018383808284378201915050505050509192919290505050610519565b005b34801561013d57600080fd5b5061015c6004803603810190808035906020019092919050505061071e565b604051808273ffffffffffffffffffffffffffffffffffffffff1673ffffffffffffffffffffffffffffffffffffffff16815260200191505060405180910390f35b3480156101aa57600080fd5b506101b3610751565b005b3480156101c157600080fd5b506101e06004803603810190808035906020019092919050505061082d565b005b3480156101ee57600080fd5b5061020d600480360381019080803590602001909291905050506109a0565b6040518080602001828103825283818151815260200191508051906020019060200280838360005b83811015610250578082015181840152602081019050610235565b505050509050019250505060405180910390f35b34801561027057600080fd5b5061028f60048036038101908080359060200190929190505050610a8f565b60405180806020018360028111156102a357fe5b60ff168152602001828103825284818151815260200191508051906020019080838360005b838110156102e35780820151818401526020810190506102c8565b50505050905090810190601f1680156103105780820380516001836020036101000a031916815260200191505b50935050505060405180910390f35b34801561032b57600080fd5b506103546004803603810190808035906020019092919080359060200190929190505050610b67565b005b34801561036257600080fd5b5061036b610d26565b005b34801561037957600080fd5b506103de60048036038101908080359060200190929190803590602001908201803590602001908080601f0160208091040260200160405190810160405280939291908181526020018383808284378201915050505050509192919290505050610e28565b005b3480156103ec57600080fd5b5061040b60048036038101908080359060200190929190505050610f4e565b005b34801561041957600080fd5b5061042261108f565b604051808273ffffffffffffffffffffffffffffffffffffffff1673ffffffffffffffffffffffffffffffffffffffff16815260200191505060405180910390f35b34801561047057600080fd5b5061048f600480360381019080803590602001909291905050506110b4565b604051808215151515815260200191505060405180910390f35b3480156104b557600080fd5b506104d460048036038101908080359060200190929190505050611104565b005b3480156104e257600080fd5b50610517600480360381019080803573ffffffffffffffffffffffffffffffffffffffff169060200190929190505050611169565b005b600454341015151561052a57600080fd5b6001806060604051908101604052808481526020016000600281111561054c57fe5b8152602001600060405190808252806020026020018201604052801561058657816020015b60608152602001906001900390816105715790505b508152509080600181540180825580915050906001820390600052602060002090600502016000909192909190915060008201518160000190805190602001906105d19291906112ca565b5060208201518160010160006101000a81548160ff021916908360028111156105f657fe5b0217905550604082015181600201908051906020019061061792919061134a565b505050036003819055503360026000600354815260200190815260200160002060006101000a81548173ffffffffffffffffffffffffffffffffffffffff021916908373ffffffffffffffffffffffffffffffffffffffff1602179055507fef14945256f5c0916c4a21d0375f338b38047daed1b0be3889493528ce7a8c65600354826040518083815260200180602001828103825283818151815260200191508051906020019080838360005b838110156106e05780820151818401526020810190506106c5565b50505050905090810190601f16801561070d5780820380516001836020036101000a031916815260200191505b50935050505060405180910390a150565b60026020528060005260406000206000915054906101000a900473ffffffffffffffffffffffffffffffffffffffff1681565b6000809054906101000a900473ffffffffffffffffffffffffffffffffffffffff1673ffffffffffffffffffffffffffffffffffffffff163373ffffffffffffffffffffffffffffffffffffffff161415156107ac57600080fd5b6000809054906101000a900473ffffffffffffffffffffffffffffffffffffffff1673ffffffffffffffffffffffffffffffffffffffff166108fc3073ffffffffffffffffffffffffffffffffffffffff16319081150290604051600060405180830381858888f1935050505015801561082a573d6000803e3d6000fd5b50565b803373ffffffffffffffffffffffffffffffffffffffff166002600083815260200190815260200160002060009054906101000a900473ffffffffffffffffffffffffffffffffffffffff1673ffffffffffffffffffffffffffffffffffffffff1614151561089b57600080fd5b8160008060028111156108aa57fe5b6001838154811015156108b957fe5b906000526020600020906005020160010160009054906101000a900460ff1660028111156108e357fe5b1415156108ef57600080fd5b600260018581548110151561090057fe5b9060005260206000209060050201600201805490501015151561092257600080fd5b6001808581548110151561093257fe5b906000526020600020906005020160010160006101000a81548160ff0219169083600281111561095e57fe5b02179055507f33c2d6285ba1442f7dd954820743aacec7468bc52e1671024b948f48f1322640846040518082815260200191505060405180910390a150505050565b60608060006001848154811015156109b457fe5b9060005260206000209060050201600201805490506040519080825280602002602001820160405280156109f75781602001602082028038833980820191505090505b509150600090505b600184815481101515610a0e57fe5b906000526020600020906005020160020180549050811015610a8557600184815481101515610a3957fe5b90600052602060002090600502016003016000828152602001908152602001600020548282815181101515610a6a57fe5b906020019060200201818152505080806001019150506109ff565b8192505050919050565b600181815481101515610a9e57fe5b9060005260206000209060050201600091509050806000018054600181600116156101000203166002900480601f016020809104026020016040519081016040528092919081815260200182805460018160011615610100020316600290048015610b4a5780601f10610b1f57610100808354040283529160200191610b4a565b820191906000526020600020905b815481529060010190602001808311610b2d57829003601f168201915b5050505050908060010160009054906101000a900460ff16905082565b8160001515600182815481101515610b7b57fe5b906000526020600020906005020160040160003373ffffffffffffffffffffffffffffffffffffffff1673ffffffffffffffffffffffffffffffffffffffff16815260200190815260200160002060009054906101000a900460ff161515141515610be557600080fd5b826001806002811115610bf457fe5b600183815481101515610c0357fe5b906000526020600020906005020160010160009054906101000a900460ff166002811115610c2d57fe5b141515610c3957600080fd5b83600186815481101515610c4957fe5b90600052602060002090600502016002018054905010151515610c6b57600080fd5b60018086815481101515610c7b57fe5b906000526020600020906005020160040160003373ffffffffffffffffffffffffffffffffffffffff1673ffffffffffffffffffffffffffffffffffffffff16815260200190815260200160002060006101000a81548160ff02191690831515021790555060018086815481101515610cf057fe5b90600052602060002090600502016003016000868152602001908152602001600020600082825401925050819055505050505050565b6000809054906101000a900473ffffffffffffffffffffffffffffffffffffffff1673ffffffffffffffffffffffffffffffffffffffff163373ffffffffffffffffffffffffffffffffffffffff16141515610d8157600080fd5b6000809054906101000a900473ffffffffffffffffffffffffffffffffffffffff1673ffffffffffffffffffffffffffffffffffffffff167ff8df31144d9c2f0f6b59d69b8b98abd5459d07f2742c4df920b25aae33c6482060405160405180910390a260008060006101000a81548173ffffffffffffffffffffffffffffffffffffffff021916908373ffffffffffffffffffffffffffffffffffffffff160217905550565b813373ffffffffffffffffffffffffffffffffffffffff166002600083815260200190815260200160002060009054906101000a900473ffffffffffffffffffffffffffffffffffffffff1673ffffffffffffffffffffffffffffffffffffffff16141515610e9657600080fd5b826000806002811115610ea557fe5b600183815481101515610eb457fe5b906000526020600020906005020160010160009054906101000a900460ff166002811115610ede57fe5b141515610eea57600080fd5b600185815481101515610ef957fe5b9060005260206000209060050201600201849080600181540180825580915050906001820390600052602060002001600090919290919091509080519060200190610f459291906113aa565b50505050505050565b803373ffffffffffffffffffffffffffffffffffffffff166002600083815260200190815260200160002060009054906101000a900473ffffffffffffffffffffffffffffffffffffffff1673ffffffffffffffffffffffffffffffffffffffff16141515610fbc57600080fd5b816001806002811115610fcb57fe5b600183815481101515610fda57fe5b906000526020600020906005020160010160009054906101000a900460ff16600281111561100457fe5b14151561101057600080fd5b600260018581548110151561102157fe5b906000526020600020906005020160010160006101000a81548160ff0219169083600281111561104d57fe5b02179055507ffce20a510f6f83f7014a422dfa9541af4170f706faeed678bf815b2bad2c3b9d846040518082815260200191505060405180910390a150505050565b6000809054906101000a900473ffffffffffffffffffffffffffffffffffffffff1681565b6000600160028111156110c357fe5b6001838154811015156110d257fe5b906000526020600020906005020160010160009054906101000a900460ff1660028111156110fc57fe5b149050919050565b6000809054906101000a900473ffffffffffffffffffffffffffffffffffffffff1673ffffffffffffffffffffffffffffffffffffffff163373ffffffffffffffffffffffffffffffffffffffff1614151561115f57600080fd5b8060048190555050565b6000809054906101000a900473ffffffffffffffffffffffffffffffffffffffff1673ffffffffffffffffffffffffffffffffffffffff163373ffffffffffffffffffffffffffffffffffffffff161415156111c457600080fd5b6111cd816111d0565b50565b600073ffffffffffffffffffffffffffffffffffffffff168173ffffffffffffffffffffffffffffffffffffffff161415151561120c57600080fd5b8073ffffffffffffffffffffffffffffffffffffffff166000809054906101000a900473ffffffffffffffffffffffffffffffffffffffff1673ffffffffffffffffffffffffffffffffffffffff167f8be0079c531659141344cd1fd0a4f28419497f9722a3daafe3b4186f6b6457e060405160405180910390a3806000806101000a81548173ffffffffffffffffffffffffffffffffffffffff021916908373ffffffffffffffffffffffffffffffffffffffff16021790555050565b828054600181600116156101000203166002900490600052602060002090601f016020900481019282601f1061130b57805160ff1916838001178555611339565b82800160010185558215611339579182015b8281111561133857825182559160200191906001019061131d565b5b509050611346919061142a565b5090565b828054828255906000526020600020908101928215611399579160200282015b828111156113985782518290805190602001906113889291906112ca565b509160200191906001019061136a565b5b5090506113a6919061144f565b5090565b828054600181600116156101000203166002900490600052602060002090601f016020900481019282601f106113eb57805160ff1916838001178555611419565b82800160010185558215611419579182015b828111156114185782518255916020019190600101906113fd565b5b509050611426919061142a565b5090565b61144c91905b80821115611448576000816000905550600101611430565b5090565b90565b61147891905b80821115611474576000818161146b919061147b565b50600101611455565b5090565b90565b50805460018160011615610100020316600290046000825580601f106114a157506114c0565b601f0160209004906000526020600020908101906114bf919061142a565b5b505600a165627a7a723058208d67d487a0b254e3d5b0dbc07d5d0212d91f1642be698f04a63e5e58448b96340029",
  "source": "pragma solidity ^ 0.4 .24;\n\nimport \"./Ownable.sol\";\n\ncontract VoteFactory is  Ownable   {\n\n    modifier voterNotVoted(uint256 _voteId) {\n        require(votes[_voteId].voterIsVoted[msg.sender] == false);\n        _;\n    }\n\n    modifier ownerOfVote(uint256 _voteId) {\n        require(voteOwner[_voteId] == msg.sender);\n        _;\n    }\n\n    modifier voteStateEqually(uint256 _voteId, State _state) {\n        require(votes[_voteId].state == _state);\n        _;\n    }\n\n    event CreateVote(uint256 voteId, string question);\n    event StartVote(uint256 voteId);\n    event EndVote(uint256 voteId);\n\n    enum State {\n        Initial,\n        Started,\n        Stopped\n    }\n\n    struct Vote {\n        string question;\n        State state;\n        string[] answers;\n\n        mapping (uint256 => uint256) voteCount;\n        mapping (address => bool) voterIsVoted;\n    }\n\n    Vote[] public votes;\n    mapping(uint256 => address) public voteOwner;\n    uint256 voteId;\n\n    uint256 private createVoteFee = 0.0001 ether;\n\n    constructor() public {\n        owner = msg.sender;\n    }\n\n    function withdraw() public onlyOwner() {\n        owner.transfer(address(this).balance);\n    }\n\n    function setCreateVoteFee(uint256 _fee) public onlyOwner() {\n        createVoteFee = _fee; \n    }\n\n    function createVote(string _question) public payable {\n        require(msg.value >= createVoteFee);\n        voteId = votes.push(Vote(_question, State.Initial, new string[](0))) - 1;\n        voteOwner[voteId] = msg.sender;\n        emit CreateVote(voteId, _question);\n    }\n\n    function addAnswer(uint256 _voteId, string _answer) public ownerOfVote(_voteId) voteStateEqually(_voteId, State.Initial) {\n        votes[_voteId].answers.push(_answer);\n    }\n\n    function startVote(uint256 _voteId) public ownerOfVote(_voteId) voteStateEqually(_voteId, State.Initial) {\n        require( votes[_voteId].answers.length >= 2);\n        votes[_voteId].state = State.Started;\n        emit StartVote(_voteId);\n    }\n\n   function voteAnswer(\n        uint256 _voteId,\n        uint256 _answerOption\n    )\n        public \n        voterNotVoted(_voteId) voteStateEqually(_voteId, State.Started) {\n        \n        require(votes[_voteId].answers.length >= _answerOption);\n        votes[_voteId].voterIsVoted[msg.sender] = true;\n        votes[_voteId].voteCount[_answerOption] += 1; \n    }\n    \n    function endVote(uint256 _voteId) public ownerOfVote(_voteId) voteStateEqually(_voteId, State.Started) {\n       votes[_voteId].state = State.Stopped;\n       emit EndVote(_voteId);\n    }\n\n    function voteCount(uint256 _voteId) public view returns(uint256[]) {\n        uint256[] memory result = new uint256[](votes[_voteId].answers.length);\n        for (uint256 i = 0; i < votes[_voteId].answers.length; i ++)\n            result[i] = votes[_voteId].voteCount[i];\n    return result;\n    }\n\n    function isStarted(uint256 _voteId) public view returns(bool) {\n        return votes[_voteId].state == State.Started;\n    }\n \n}",
  "sourcePath": "/home/msi/vote/contracts/VoteFactory.sol",
  "compiler": {
    "name": "solc",
    "version": "0.4.24+commit.e67f0147.Emscripten.clang"
  },
  "schemaVersion": "2.0.1",
  "updatedAt": "2018-07-14T11:16:02.871Z"
}