{
  "contractName": "VoteFactory",
  "abi": [
    {
      "constant": true,
      "inputs": [
        {
          "name": "",
          "type": "uint256"
        }
      ],
      "name": "voteOwner",
      "outputs": [
        {
          "name": "",
          "type": "address"
        }
      ],
      "payable": false,
      "stateMutability": "view",
      "type": "function"
    },
    {
      "constant": true,
      "inputs": [
        {
          "name": "",
          "type": "uint256"
        }
      ],
      "name": "votes",
      "outputs": [
        {
          "name": "question",
          "type": "string"
        },
        {
          "name": "state",
          "type": "uint8"
        }
      ],
      "payable": false,
      "stateMutability": "view",
      "type": "function"
    },
    {
      "constant": false,
      "inputs": [],
      "name": "renounceOwnership",
      "outputs": [],
      "payable": false,
      "stateMutability": "nonpayable",
      "type": "function"
    },
    {
      "constant": true,
      "inputs": [],
      "name": "owner",
      "outputs": [
        {
          "name": "",
          "type": "address"
        }
      ],
      "payable": false,
      "stateMutability": "view",
      "type": "function"
    },
    {
      "constant": false,
      "inputs": [
        {
          "name": "_newOwner",
          "type": "address"
        }
      ],
      "name": "transferOwnership",
      "outputs": [],
      "payable": false,
      "stateMutability": "nonpayable",
      "type": "function"
    },
    {
      "inputs": [],
      "payable": false,
      "stateMutability": "nonpayable",
      "type": "constructor"
    },
    {
      "anonymous": false,
      "inputs": [
        {
          "indexed": false,
          "name": "voteId",
          "type": "uint256"
        },
        {
          "indexed": false,
          "name": "question",
          "type": "string"
        }
      ],
      "name": "CreateVote",
      "type": "event"
    },
    {
      "anonymous": false,
      "inputs": [
        {
          "indexed": false,
          "name": "voteId",
          "type": "uint256"
        }
      ],
      "name": "StartVote",
      "type": "event"
    },
    {
      "anonymous": false,
      "inputs": [
        {
          "indexed": false,
          "name": "voteId",
          "type": "uint256"
        }
      ],
      "name": "EndVote",
      "type": "event"
    },
    {
      "anonymous": false,
      "inputs": [
        {
          "indexed": true,
          "name": "previousOwner",
          "type": "address"
        }
      ],
      "name": "OwnershipRenounced",
      "type": "event"
    },
    {
      "anonymous": false,
      "inputs": [
        {
          "indexed": true,
          "name": "previousOwner",
          "type": "address"
        },
        {
          "indexed": true,
          "name": "newOwner",
          "type": "address"
        }
      ],
      "name": "OwnershipTransferred",
      "type": "event"
    },
    {
      "constant": false,
      "inputs": [
        {
          "name": "_question",
          "type": "string"
        }
      ],
      "name": "createVote",
      "outputs": [],
      "payable": false,
      "stateMutability": "nonpayable",
      "type": "function"
    },
    {
      "constant": false,
      "inputs": [
        {
          "name": "_voteId",
          "type": "uint256"
        },
        {
          "name": "_answer",
          "type": "string"
        }
      ],
      "name": "addAnswer",
      "outputs": [],
      "payable": false,
      "stateMutability": "nonpayable",
      "type": "function"
    },
    {
      "constant": false,
      "inputs": [
        {
          "name": "_voteId",
          "type": "uint256"
        }
      ],
      "name": "startVote",
      "outputs": [],
      "payable": false,
      "stateMutability": "nonpayable",
      "type": "function"
    },
    {
      "constant": false,
      "inputs": [
        {
          "name": "_voteId",
          "type": "uint256"
        },
        {
          "name": "_answerOption",
          "type": "uint256"
        }
      ],
      "name": "voteAnswer",
      "outputs": [],
      "payable": false,
      "stateMutability": "nonpayable",
      "type": "function"
    },
    {
      "constant": false,
      "inputs": [
        {
          "name": "_voteId",
          "type": "uint256"
        }
      ],
      "name": "endVote",
      "outputs": [],
      "payable": false,
      "stateMutability": "nonpayable",
      "type": "function"
    },
    {
      "constant": true,
      "inputs": [
        {
          "name": "_voteId",
          "type": "uint256"
        }
      ],
      "name": "voteCount",
      "outputs": [
        {
          "name": "",
          "type": "uint256[]"
        }
      ],
      "payable": false,
      "stateMutability": "view",
      "type": "function"
    },
    {
      "constant": true,
      "inputs": [
        {
          "name": "_voteId",
          "type": "uint256"
        }
      ],
      "name": "isStopped",
      "outputs": [
        {
          "name": "",
          "type": "bool"
        }
      ],
      "payable": false,
      "stateMutability": "view",
      "type": "function"
    }
  ],
  "bytecode": "0x608060405234801561001057600080fd5b50336000806101000a81548173ffffffffffffffffffffffffffffffffffffffff021916908373ffffffffffffffffffffffffffffffffffffffff160217905550336000806101000a81548173ffffffffffffffffffffffffffffffffffffffff021916908373ffffffffffffffffffffffffffffffffffffffff160217905550611295806100a06000396000f3006080604052600436106100ba576000357c0100000000000000000000000000000000000000000000000000000000900463ffffffff16806313292a02146100bf578063389bbc73146101285780633f220524146101955780634fc8a20d146101c25780635df81330146102445780636b7ea125146102ff5780636f276c9914610336578063715018a61461037b5780637491995a14610392578063865df0ad146104055780638da5cb5b14610432578063f2fde38b14610489575b600080fd5b3480156100cb57600080fd5b50610126600480360381019080803590602001908201803590602001908080601f01602080910402602001604051908101604052809392919081815260200183838082843782019150505050505091929192905050506104cc565b005b34801561013457600080fd5b50610153600480360381019080803590602001909291905050506106bb565b604051808273ffffffffffffffffffffffffffffffffffffffff1673ffffffffffffffffffffffffffffffffffffffff16815260200191505060405180910390f35b3480156101a157600080fd5b506101c0600480360381019080803590602001909291905050506106ee565b005b3480156101ce57600080fd5b506101ed60048036038101908080359060200190929190505050610861565b6040518080602001828103825283818151815260200191508051906020019060200280838360005b83811015610230578082015181840152602081019050610215565b505050509050019250505060405180910390f35b34801561025057600080fd5b5061026f60048036038101908080359060200190929190505050610950565b604051808060200183600281111561028357fe5b60ff168152602001828103825284818151815260200191508051906020019080838360005b838110156102c35780820151818401526020810190506102a8565b50505050905090810190601f1680156102f05780820380516001836020036101000a031916815260200191505b50935050505060405180910390f35b34801561030b57600080fd5b506103346004803603810190808035906020019092919080359060200190929190505050610a28565b005b34801561034257600080fd5b5061036160048036038101908080359060200190929190505050610bf7565b604051808215151515815260200191505060405180910390f35b34801561038757600080fd5b50610390610c46565b005b34801561039e57600080fd5b5061040360048036038101908080359060200190929190803590602001908201803590602001908080601f0160208091040260200160405190810160405280939291908181526020018383808284378201915050505050509192919290505050610d48565b005b34801561041157600080fd5b5061043060048036038101908080359060200190929190505050610e6e565b005b34801561043e57600080fd5b50610447610eea565b604051808273ffffffffffffffffffffffffffffffffffffffff1673ffffffffffffffffffffffffffffffffffffffff16815260200191505060405180910390f35b34801561049557600080fd5b506104ca600480360381019080803573ffffffffffffffffffffffffffffffffffffffff169060200190929190505050610f0f565b005b6000600180606060405190810160405280858152602001600060028111156104f057fe5b8152602001600060405190808252806020026020018201604052801561052a57816020015b60608152602001906001900390816105155790505b50815250908060018154018082558091505090600182039060005260206000209060050201600090919290919091506000820151816000019080519060200190610575929190611070565b5060208201518160010160006101000a81548160ff0219169083600281111561059a57fe5b021790555060408201518160020190805190602001906105bb9291906110f0565b505050039050336002600083815260200190815260200160002060006101000a81548173ffffffffffffffffffffffffffffffffffffffff021916908373ffffffffffffffffffffffffffffffffffffffff1602179055507fef14945256f5c0916c4a21d0375f338b38047daed1b0be3889493528ce7a8c6581836040518083815260200180602001828103825283818151815260200191508051906020019080838360005b8381101561067c578082015181840152602081019050610661565b50505050905090810190601f1680156106a95780820380516001836020036101000a031916815260200191505b50935050505060405180910390a15050565b60026020528060005260406000206000915054906101000a900473ffffffffffffffffffffffffffffffffffffffff1681565b803373ffffffffffffffffffffffffffffffffffffffff166002600083815260200190815260200160002060009054906101000a900473ffffffffffffffffffffffffffffffffffffffff1673ffffffffffffffffffffffffffffffffffffffff1614151561075c57600080fd5b81600080600281111561076b57fe5b60018381548110151561077a57fe5b906000526020600020906005020160010160009054906101000a900460ff1660028111156107a457fe5b1415156107b057600080fd5b60026001858154811015156107c157fe5b906000526020600020906005020160020180549050101515156107e357600080fd5b600180858154811015156107f357fe5b906000526020600020906005020160010160006101000a81548160ff0219169083600281111561081f57fe5b02179055507f33c2d6285ba1442f7dd954820743aacec7468bc52e1671024b948f48f1322640846040518082815260200191505060405180910390a150505050565b606080600060018481548110151561087557fe5b9060005260206000209060050201600201805490506040519080825280602002602001820160405280156108b85781602001602082028038833980820191505090505b509150600090505b6001848154811015156108cf57fe5b906000526020600020906005020160020180549050811015610946576001848154811015156108fa57fe5b9060005260206000209060050201600301600082815260200190815260200160002054828281518110151561092b57fe5b906020019060200201818152505080806001019150506108c0565b8192505050919050565b60018181548110151561095f57fe5b9060005260206000209060050201600091509050806000018054600181600116156101000203166002900480601f016020809104026020016040519081016040528092919081815260200182805460018160011615610100020316600290048015610a0b5780601f106109e057610100808354040283529160200191610a0b565b820191906000526020600020905b8154815290600101906020018083116109ee57829003601f168201915b5050505050908060010160009054906101000a900460ff16905082565b8160001515600182815481101515610a3c57fe5b906000526020600020906005020160040160008060009054906101000a900473ffffffffffffffffffffffffffffffffffffffff1673ffffffffffffffffffffffffffffffffffffffff1673ffffffffffffffffffffffffffffffffffffffff16815260200190815260200160002060009054906101000a900460ff161515141515610ac757600080fd5b826001806002811115610ad657fe5b600183815481101515610ae557fe5b906000526020600020906005020160010160009054906101000a900460ff166002811115610b0f57fe5b141515610b1b57600080fd5b60018086815481101515610b2b57fe5b906000526020600020906005020160040160008060009054906101000a900473ffffffffffffffffffffffffffffffffffffffff1673ffffffffffffffffffffffffffffffffffffffff1673ffffffffffffffffffffffffffffffffffffffff16815260200190815260200160002060006101000a81548160ff02191690831515021790555060018086815481101515610bc157fe5b90600052602060002090600502016003016000868152602001908152602001600020600082825401925050819055505050505050565b6000600280811115610c0557fe5b600183815481101515610c1457fe5b906000526020600020906005020160010160009054906101000a900460ff166002811115610c3e57fe5b149050919050565b6000809054906101000a900473ffffffffffffffffffffffffffffffffffffffff1673ffffffffffffffffffffffffffffffffffffffff163373ffffffffffffffffffffffffffffffffffffffff16141515610ca157600080fd5b6000809054906101000a900473ffffffffffffffffffffffffffffffffffffffff1673ffffffffffffffffffffffffffffffffffffffff167ff8df31144d9c2f0f6b59d69b8b98abd5459d07f2742c4df920b25aae33c6482060405160405180910390a260008060006101000a81548173ffffffffffffffffffffffffffffffffffffffff021916908373ffffffffffffffffffffffffffffffffffffffff160217905550565b813373ffffffffffffffffffffffffffffffffffffffff166002600083815260200190815260200160002060009054906101000a900473ffffffffffffffffffffffffffffffffffffffff1673ffffffffffffffffffffffffffffffffffffffff16141515610db657600080fd5b826000806002811115610dc557fe5b600183815481101515610dd457fe5b906000526020600020906005020160010160009054906101000a900460ff166002811115610dfe57fe5b141515610e0a57600080fd5b600185815481101515610e1957fe5b9060005260206000209060050201600201849080600181540180825580915050906001820390600052602060002001600090919290919091509080519060200190610e65929190611150565b50505050505050565b6002600182815481101515610e7f57fe5b906000526020600020906005020160010160006101000a81548160ff02191690836002811115610eab57fe5b02179055507ffce20a510f6f83f7014a422dfa9541af4170f706faeed678bf815b2bad2c3b9d816040518082815260200191505060405180910390a150565b6000809054906101000a900473ffffffffffffffffffffffffffffffffffffffff1681565b6000809054906101000a900473ffffffffffffffffffffffffffffffffffffffff1673ffffffffffffffffffffffffffffffffffffffff163373ffffffffffffffffffffffffffffffffffffffff16141515610f6a57600080fd5b610f7381610f76565b50565b600073ffffffffffffffffffffffffffffffffffffffff168173ffffffffffffffffffffffffffffffffffffffff1614151515610fb257600080fd5b8073ffffffffffffffffffffffffffffffffffffffff166000809054906101000a900473ffffffffffffffffffffffffffffffffffffffff1673ffffffffffffffffffffffffffffffffffffffff167f8be0079c531659141344cd1fd0a4f28419497f9722a3daafe3b4186f6b6457e060405160405180910390a3806000806101000a81548173ffffffffffffffffffffffffffffffffffffffff021916908373ffffffffffffffffffffffffffffffffffffffff16021790555050565b828054600181600116156101000203166002900490600052602060002090601f016020900481019282601f106110b157805160ff19168380011785556110df565b828001600101855582156110df579182015b828111156110de5782518255916020019190600101906110c3565b5b5090506110ec91906111d0565b5090565b82805482825590600052602060002090810192821561113f579160200282015b8281111561113e57825182908051906020019061112e929190611070565b5091602001919060010190611110565b5b50905061114c91906111f5565b5090565b828054600181600116156101000203166002900490600052602060002090601f016020900481019282601f1061119157805160ff19168380011785556111bf565b828001600101855582156111bf579182015b828111156111be5782518255916020019190600101906111a3565b5b5090506111cc91906111d0565b5090565b6111f291905b808211156111ee5760008160009055506001016111d6565b5090565b90565b61121e91905b8082111561121a57600081816112119190611221565b506001016111fb565b5090565b90565b50805460018160011615610100020316600290046000825580601f106112475750611266565b601f01602090049060005260206000209081019061126591906111d0565b5b505600a165627a7a723058201aff9790a493eccbb8337c7593bb8667f74c6b0622523b8716360f63db3639460029",
  "source": "pragma solidity ^ 0.4 .24;\n\nimport \"./Ownable.sol\";\n\ncontract VoteFactory is  Ownable   {\n\n    modifier voterNotVoted(uint _voteId) {\n        require(votes[_voteId].voterIsVoted[owner] == false);\n        _;\n    }\n\n    modifier ownerOfVote(uint _voteId) {\n        require(voteOwner[_voteId] == msg.sender);\n        _;\n    }\n\n    modifier stateEqually(uint _voteId, State _state) {\n        require(votes[_voteId].state == _state);\n        _;\n    }\n\n    event CreateVote(uint voteId, string question);\n    event StartVote(uint voteId);\n    event EndVote(uint voteId);\n\n    enum State {\n        Initial,\n        Started,\n        Stopped\n    }\n\n    struct Vote {\n        string question;\n        State state;\n        string[] answers;\n\n        mapping (uint => uint) voteCount;\n        mapping (address => bool) voterIsVoted;\n    }\n\n    Vote[] public votes;\n    mapping(uint256 => address) public voteOwner;\n\n    constructor() public {\n        owner = msg.sender;\n    }\n\n    function createVote(string _question) public {\n        uint voteId = votes.push(Vote(_question, State.Initial, new string[](0))) - 1;\n        voteOwner[voteId] = msg.sender;\n        emit CreateVote(voteId, _question);\n    }\n\n    function addAnswer(uint256 _voteId, string _answer) public  ownerOfVote(_voteId) stateEqually(_voteId, State.Initial) {\n        votes[_voteId].answers.push(_answer);\n    }\n\n    function startVote(uint _voteId) public ownerOfVote(_voteId) stateEqually(_voteId, State.Initial) {\n        require( votes[_voteId].answers.length >= 2);\n        votes[_voteId].state = State.Started;\n        emit StartVote(_voteId);\n    }\n\n   function voteAnswer(uint _voteId, uint _answerOption) public voterNotVoted(_voteId) stateEqually(_voteId, State.Started)  {\n        votes[_voteId].voterIsVoted[owner] = true;\n        votes[_voteId].voteCount[_answerOption] += 1; \n    }\n    \n    function endVote(uint _voteId) public {\n       votes[_voteId].state = State.Stopped;\n       emit EndVote(_voteId);\n    }\n\n    function voteCount(uint _voteId) public view returns(uint[]){\n        uint[] memory result = new uint[](votes[_voteId].answers.length);\n        for (uint i = 0; i < votes[_voteId].answers.length; i ++)\n            result[i] = votes[_voteId].voteCount[i];\n    return result;\n    }\n\n    function isStopped(uint _voteId) public view returns(bool) {\n        return votes[_voteId].state == State.Stopped;\n    }\n \n}",
  "sourcePath": "/home/msi/vote/contracts/VoteFactory.sol",
  "compiler": {
    "name": "solc",
    "version": "0.4.24+commit.e67f0147.Emscripten.clang"
  },
  "schemaVersion": "2.0.1",
  "updatedAt": "2018-07-12T06:56:19.249Z"
}